:020000041A00E0
:1000000000800010C50E001A7901001A7B01001A49
:100010007D01001A7F01001A8101001ACA69FF538D
:100020000000000000000000000000008301001A32
:100030008501001A000000008701001AA526001A99
:10004000BB01001ABB01001ABB01001A000000002E
:10005000BB01001ABB01001ABB01001ABB01001A48
:100060006D2A001ABB01001ABB01001ABB01001A5D
:10007000FD23001A3D24001A7D24001AC124001A11
:10008000BB01001ABB01001ABB01001ABB01001A18
:10009000BB01001ABB01001ABB01001ABB01001A08
:1000A000BD01001ABB01001A592A001A632A001A5E
:1000B000BB01001ABB01001ABB01001ABB01001AE8
:1000C000E92E001AF32E001AFD2E001ABB01001AA9
:1000D000BB01001ABB01001ABB01001ABB01001AC8
:1000E000BB01001ABB01001ABB01001ABB01001AB8
:1000F00000000000BB01001ABB01001ABB01001A7E
:1001000000000000BB01001ABB01001ABB01001A6D
:10011000BB01001A1C3C001A00000010DC000000AB
:100120001C3C001A00000810000000001C3C001AD3
:1001300000000020000000001C3C001A008000208D
:10014000000000001C3C001A00C00020000000005D
:10015000E0000010F00500000000081000000000A2
:1001600000000020000000000080002000000000CF
:1001700000C0002000000000FEE7FEE7FEE7FEE70B
:10018000FEE7FEE7FEE7FEE7FEE7002393420AD222
:1001900010B450F8044B41F8044B04339342F8D3A5
:1001A0005DF8044B7047704700238B4204D2002255
:1001B00040F8042B0433F8E77047FEE708B5002049
:1001C00002F086FA08BDFFFFFFFFFFFFFFFFFFFF02
:1001D000FFFFFFFFFFFFFFFFFFFFFFFFFFFFFFFF2F
:1001E000FFFFFFFFFFFFFFFFFFFFFFFFFFFFFFFF1F
:1001F000FFFFFFFFFFFFFFFFFFFFFFFFFFFFFFFF0F
:10020000FFFFFFFFFFFFFFFFFFFFFFFFFFFFFFFFFE
:10021000FFFFFFFFFFFFFFFFFFFFFFFFFFFFFFFFEE
:10022000FFFFFFFFFFFFFFFFFFFFFFFFFFFFFFFFDE
:10023000FFFFFFFFFFFFFFFFFFFFFFFFFFFFFFFFCE
:10024000FFFFFFFFFFFFFFFFFFFFFFFFFFFFFFFFBE
:10025000FFFFFFFFFFFFFFFFFFFFFFFFFFFFFFFFAE
:10026000FFFFFFFFFFFFFFFFFFFFFFFFFFFFFFFF9E
:10027000FFFFFFFFFFFFFFFFFFFFFFFFFFFFFFFF8E
:10028000FFFFFFFFFFFFFFFFFFFFFFFFFFFFFFFF7E
:10029000FFFFFFFFFFFFFFFFFFFFFFFFFFFFFFFF6E
:1002A000FFFFFFFFFFFFFFFFFFFFFFFFFFFFFFFF5E
:1002B000FFFFFFFFFFFFFFFFFFFFFFFFFFFFFFFF4E
:1002C000FFFFFFFFFFFFFFFFFFFFFFFFFFFFFFFF3E
:1002D000FFFFFFFFFFFFFFFFFFFFFFFFFFFFFFFF2E
:1002E000FFFFFFFFFFFFFFFFFFFFFFFFFFFFFFFF1E
:1002F000FFFFFFFFFFFFFFFFFFFFFFFFFFFFFFFF0E
:100300002DE9F0439DF81CC09DF820709DF82460F5
:100310009DF828502D4CA4FB018E4FEADE0E0EEB0B
:100320008E094FEA4908A1EB080141EA0E1101705C
:10033000A4FB02E1C90801EB81084FEA480EA2EBD9
:100340000E0242EA01124270A4FB0312D20802EB31
:10035000820E4FEA4E018E465B1A43EA0213837007
:10036000A4FB0C23DB0803EB83014A00ACEB020C7B
:100370004CEA031C80F803C0A4FB0723DB0803EB53
:1003800083014A00BF1A47EA03170771A4FB06233B
:10039000DB0803EB83014A00B61A46EA03164671EE
:1003A000A4FB0534E40804EB84025300ED1A45EA8B
:1003B000041484710023C371037243728372C37285
:1003C000037343738373C373BDE8F083CDCCCCCC8C
:1003D00010B588B0144600238DF80C3083798DF861
:1003E0000D3043798DF80E3003798DF80F30C378D6
:1003F0008DF8103083788DF8113043788DF81230F5
:1004000003788DF81330C3798DF81430037A8DF8A2
:100410001530437A8DF81630837A8DF81730C37A09
:100420008DF81830037B8DF81930437B8DF81A3026
:10043000837B8DF81B30C37B8DF81C30C8B2012341
:100440000093112303AA214602F0CFF808B010BD93
:1004500030B589B00446154600228DF81720C8B281
:10046000012303930721029106A9019100920DF146
:100470001702294602F0A5F89DF81E3023709DF85A
:100480001D3063709DF81C30A3709DF81B30E37025
:100490009DF81A3023719DF8193063719DF818305A
:1004A000A37109B030BD30B587B0044615460E23A0
:1004B0008DF81330C8B2012303930222029205AAD9
:1004C0000192002200920DF11302294602F079F800
:1004D0009DF81430A3739DF81530E37307B030BD59
:1004E00000F00F02030903EB830358001044C0B26D
:1004F0007047FFFF08B502F0C7FA4FF4E13103205F
:1005000002F064F900F0D2FC00F0C4FCC820002125
:1005100002F072FB00F0FCFB054B1968054B1878E4
:1005200002F048F86420002102F066FB08BD00BF1D
:1005300000000010E4000010F0B585B04D4C6822BA
:100540004D4B19782046FFF7AEFF94F90F30002B82
:100550007BDB484D6822484B19782846FFF778FF27
:10056000464C002626702878FFF7BAFFC0B200215B
:1005700002F008FB0146204602F0C4FE204602F0CD
:10058000D1FE3F4B1F8827526878FFF7A9FFC0B202
:10059000002102F0F7FA0146204602F0B3FE2046A1
:1005A00002F0C0FE2752A878FFF79AFFC0B20021E0
:1005B00002F0E8FA0146204602F0A4FE204602F0CE
:1005C000B1FE304B1B8823522879FFF789FFC0B258
:1005D000002102F0D7FA0146204602F093FE2046A1
:1005E00002F0A0FE284B1F8827526879FFF778FF9A
:1005F000C0B2002102F0C6FA0146204602F082FE97
:10060000204602F08FFE2752A879FFF769FFC0B29B
:10061000002102F0B7FA0146204602F073FE00F016
:100620003FFC1A4DBCEEC00A85ED000A00F044FC08
:1006300000942A683346C11700F096FB41F28830D7
:10064000002102F0D9FA05B0F0BD222303930B2359
:1006500002930E230193012200921A2317212046B0
:10066000FFF74EFE6822044B19782046FFF7B0FED4
:100670006FE700BF24010010E400001038010010F3
:100680006433001A6833001A6C33001AE00000105B
:1006900008B5FFF72FFFFFF74FFFFCE708B54FF452
:1006A0008062034B1A600021024802F023FE08BD5D
:1006B00004000010000200102DE9F04385B08146CF
:1006C0000D46FFF7EBFF684C6849207802F076FA98
:1006D000207802F077FA6649207802F06FFA023546
:1006E00000274FF00A08CDF800802A463B462078C4
:1006F00002F070FA5F4E3146207802F05FFA5E4CED
:100700005E49207802F05AFACDF800802A463B462E
:10071000207802F05FFA3146207802F04FFA41F279
:1007200088320023CDE90223554B0093554B092213
:1007300055495648007802F057F900287CD0514CB2
:100740002146494B187802F039FAFFF7A7FF4A4DC6
:100750004946287802F032FA3146287802F02EFA1B
:1007600041F288320023CDE90223454B0093234612
:10077000092247494548007802F036F90546002825
:100780003FD02146384B187802F018FAFFF786FF61
:10079000394D4946287802F011FA287802F012FA09
:1007A00041F288320023CDE90223354B00932346E2
:1007B000082238493548007802F016F9054628B174
:1007C0002146294B187802F0F9F949E0264C3249C4
:1007D000207802F0F3F9207802F0F4F92F4920781C
:1007E00002F0ECF9207802F0EDF92D49207802F0C2
:1007F000E5F9207802F0E6F92249207802F0DEF9E6
:100800002EE0194C2449207802F0D8F9207802F023
:10081000D9F92249207802F0D1F9207802F0D2F9F2
:100820002049207802F0CAF9207802F0CBF9154966
:10083000207802F0C3F913E005460B4C1A492078E2
:1008400002F0BCF9207802F0BDF91849207802F0D6
:10085000B5F9207802F0B6F90A49207802F0AEF92D
:10086000284605B0BDE8F083E6000010E435001A24
:100870000C36001AE035001AE50000102036001A88
:1008800004000010000200102C36001A09000010AD
:100890003836001A4436001A5036001A9036001ABC
:1008A000C436001AF436001A1837001A4C37001AEA
:1008B0002DE9F04F85B007468B46FFF7EFFE424C1F
:1008C0004249207802F07AF93946207802F076F928
:1008D0003F49207802F072F900250A2600965A4610
:1008E0002B46207802F076F93A49207802F066F932
:1008F000207802F067F93849207802F05FF939462C
:10090000207802F05BF9DFF8F4A05146207802F07D
:1009100055F900965A462B46207802F05BF9DFF82D
:10092000E0904946207802F049F92C4C2C49207877
:1009300002F044F93946207802F040F95146207817
:1009400002F03CF900965A462B46207802F042F914
:100950004946207802F032F942F210720023CDE9C4
:100960000223204B0093204B0F222049204800787F
:1009700002F03AF8804640B11B49134B187802F058
:100980001DF9404605B0BDE8F08F0F4C194920789D
:1009900002F014F93946207802F010F9207802F0BC
:1009A00011F95146207802F009F900965A462B4673
:1009B000207802F00FF91049207802F0FFF8207833
:1009C00002F000F9D8E700BFE60000107033001A0B
:1009D0009033001A7835001A9C33001AE500001095
:1009E000BC33001A0400001000020010D033001ABB
:1009F00009000010E033001A5C37001AB833001AFF
:100A0000E035001A2DE9F04182B005460E46174642
:100A10009846234C2349207802F0D0F8207802F041
:100A2000D1F82149207802F0C9F83946207802F03F
:100A3000C5F81E49207802F0C1F82946207802F056
:100A4000BDF81B49207802F0B9F80A23009332461A
:100A50000023207802F0BEF81649207802F0AEF8A4
:100A6000207802F0AFF8207802F0ACF83146284642
:100A7000FFF71EFF58B141463846FFF71DFE0446FA
:100A800050B101210D2001F09DFB012404E004463A
:100A900000210D2001F096FB204602B0BDE8F08158
:100AA000E60000106437001AA837001ABC37001A95
:100AB0009033001A7835001A70B584B005460E469A
:100AC000FFF7ECFD2F4C3049207802F077F82946EB
:100AD000207802F073F82D49207802F06FF8207822
:100AE00002F070F82A4C2B49207802F067F829466A
:100AF000207802F063F82849207802F05FF8314648
:100B0000207802F05BF82549207802F057F842F28D
:100B100010720023CDE90223214B0093214B2322A5
:100B200021492248007801F05FFF064690B1204934
:100B30001C4802F0FFFB014630B1124B187802F05E
:100B40003DF8304604B070BD16490E4B187802F0DF
:100B500035F8F6E70B4C1749207802F02FF82946B4
:100B6000207802F02BF8207802F02CF81249207837
:100B700002F024F8207802F025F80A49207802F0E3
:100B80001DF8DEE7E60000101434001A7835001A6C
:100B9000E50000103834001ACC33001A4434001A2F
:100BA00004000010000200104834001A0900001070
:100BB0006C34001A7C34001A5C37001A30B585B0EA
:100BC000FFF76CFD164C1749207801F0F7FF2078ED
:100BD00001F0F8FF1449154B187801F0EFFF44F6C7
:100BE00020620023CDE90223114B0093114B09220F
:100BF00011491248007801F0F7FE044638B10D495A
:100C0000074B187801F0DAFF204605B030BD044DDF
:100C10000B49287801F0D2FF287801F0D3FFEEE7E6
:100C2000E6000010D437001A2438001AE50000103E
:100C300004000010000200103038001A09000010F3
:100C40003C38001AF0B583B01746254D2870254B67
:100C50001970254C204601F0A9FF2449207801F0A5
:100C6000ADFF207801F0AEFF214E3A46297830469C
:100C700001F09CFF1F49207801F0A0FF207801F0CF
:100C8000A1FF1D49207801F099FF207801F09AFF1B
:100C90001A4C2146307801F091FF4FF4FA7200238C
:100CA000CDE9002304222146287801F01CFE68B11A
:100CB0000D4C1349207801F081FF207801F082FF6C
:100CC000FFF77CFF0446204603B0F0BD0446064D06
:100CD0000C49287801F072FF287801F073FFF2E7E1
:100CE0000900001008000010E6000010AC34001AE3
:100CF000E5000010DC34001A3435001A8035001A83
:100D00008835001AB035001A08B501F05BF9FCE728
:100D100008B54FF4E1320321104801F047FF0121EB
:100D20000D2001F079F94FF4E13203210520FFF79E
:100D300089FF50B10A490B48FFF7BEFE38B10121C7
:100D40000D2001F03FFA002008BDFFF7DDFF002174
:100D50000D2001F037FAFFF7D7FF00BFE6000010C3
:100D60007438001A8038001A2DE9F04F83B080469D
:100D70008946CDE90023404C4FF0000A84F800A0DA
:100D8000204602F0CFFA074606193C4D0FCD3851E8
:100D90007160B260F360286830612B79337520464A
:100DA00002F0C0FA07460619354D0FCD3851716073
:100DB000B260F3602B783374204602F0B3FA024637
:100DC0000319304E30681051B6F804B0B579A3F865
:100DD00004B09D710120002101F0D4FE014620469F
:100DE00002F090FA204602F09DFA274B1F88275206
:100DF0004046494601F0C6FE0146204602F082FA0E
:100E0000204602F08FFA0246031930681051A3F809
:100E100004B09D710220002101F0B4FE014620467D
:100E200002F070FA204602F07DFA2752DDE9000157
:100E300001F0A8FE0146204602F064FA204602F0C6
:100E400071FA02460519114B03CB10516960204617
:100E500002F068FA27520C99204602F053FA204615
:100E600002F060FA0346224650210948FFF7CAFD06
:100E7000504603B0BDE8F08F9C0100109838001A6E
:100E8000B038001AC438001ACC38001AD038001A0A
:100E9000D838001A08B50021084601F0ADFF08BD9A
:100EA00008B50021084601F0FDFF08BD08B5022184
:100EB000202001F0B1F808BD08B5202001F0B7F9F5
:100EC00008BD704710B572B6194B1A4A1A60043340
:100ED000194A1A60002305E0184A4FF0FF3142F822
:100EE00023100133072BF7D962B6154B07E003F146
:100EF0000C049A6859681868FFF747F92346114AA5
:100F00009342F4D306E01C46596854F8080BFFF7E7
:100F10004BF923460C4A9342F5D301F037F802F01F
:100F2000C5F9FFF7CEFFFFF7B3FB30BFFDE700BF0A
:100F3000003105400010DF10FFF7DF0180E200E024
:100F40001401001A5001001A7801001A7047704706
:100F500000231C2B12D810B4094A02EB830112F8AB
:100F600023404A78488802EB4412064941F822009F
:100F700001331C2BF0D95DF8044B7047704700BF5C
:100F8000F038001A0060084010B5174AD2F8203136
:100F900023F4704343F41043C2F82031D2F82431D3
:100FA00023F4704343F41043C2F8243101220F4963
:100FB000062000F0A1FB00244CB10B4B5A6822F034
:100FC0000C025A605A6842F003025A6010BD084889
:100FD00000EB840101238A78497810F8240000F09E
:100FE00063FE0134E8E700BF0030044000CB280C6A
:100FF000EC38001A08B5FFF7ABFFFFF7C5FF08BDD7
:101000000022052A19D870B40C4911F8125001EBCE
:1010100042014C780A4B05F5006653F82610012072
:10102000A040014343F8261003EB45130021195556
:101030000132052AE8D970BC704770477039001A30
:1010400000400F400023032B16D830B40B4911F891
:10105000132001EB43014D78094C02F5006254F86E
:1010600022100120A84021EA000144F82210013397
:10107000032BEBD930BC7047704700BF6839001AAA
:1010800000400F400023082B16D830B40B4911F84C
:10109000132001EB43014D78094C02F5006254F82E
:1010A00022100120A84021EA000144F82210013357
:1010B000082BEBD930BC7047704700BF7C39001A51
:1010C00000400F4010B582B0084C6946204600F041
:1010D0003BFA074A6946204600F056FA0022694664
:1010E000204600F06AFA02B010BD00BF00300E408A
:1010F000801A060010B50B4C204600F095F8636886
:1011000023F004036360236823F0FF0343F0070325
:1011100023600549204600F068F8636843F0020345
:10112000636010BD00500C40A086010008B500208F
:1011300000F036F9044B40F60802C3F8842C03494A
:10114000002000F03FF908BD0060084040420F0059
:1011500010B5074C204600F061FE4FF4E131204607
:1011600000F0A6FE0323E3600123E36510BD00BF8A
:1011700000100C4008B5FFF7EBFF094800F096F9A6
:10118000FFF780FFFFF79EFFFFF7B4FFFFF7CEFFEB
:10119000FFF736FFFFF756FF00F05AFB08BD00BF10
:1011A00000400F4008B5FFF7D3FF08BD034B98423E
:1011B00001D083207047A520704700BF00500C402D
:1011C000044B984202D040F2022070474FF4F17075
:1011D000704700BF00500C40036823F47F430902AE
:1011E00089B2194301600261704770B506460D4629
:1011F000FFF7E6FF00F0D6FD02224FF0FF3300219B
:1012000000E02146AB420BD94C1C02FB04F3B0FBBF
:10121000F3F39D42F6D2FF2CF3D902320021F1E71D
:101220003046FFF7D9FF70BD10B50446FFF7BEFF8B
:1012300000F09EFD2046FFF7C3FF00F099FD6368B4
:1012400023F004036360236823F0FF0343F00703E4
:10125000236002492046FFF7C8FF10BDA0860100A9
:10126000012909D1C0EBC0008200044B13441A6964
:10127000137DDBB2042BFBD0704700BF0C000010C5
:1012800030B4436803F0F803582B7FD8DFE803F04D
:101290007A7E7E7E7E7E7E7E2F7E7E7E7E7E7E7EC1
:1012A0002F7E7E7E7E7E7E7E397E7E7E7E7E7E7EF2
:1012B0006E7E7E7E7E7E7E7E397E7E7E7E7E7E7EA3
:1012C000727E7E7E7E7E7E7E767E7E7E7E7E7E7E52
:1012D0006C7E7E7E7E7E7E7E6E7E7E7E7E7E7E7E50
:1012E0002D7E7E7E7E7E7E7E4F003C2320E00A782F
:1012F0008B68B3FA83F35B0943EA420383603C23C0
:1013000023E08B684BB90B6923B16FF0200303F026
:101310003C031AE06FF01003F9E74B685A1C4A606F
:101320001B7883608B68013B8B603C230DE02C2392
:101330008468CA68551CCD6014700A69013A0A6154
:101340000A69012A01DD23F0040383F03C020260F4
:1013500023F01002826113F0100F19D00B7D022BC5
:1013600016D0012030BC70473C23E9E705230B75FC
:101370002C23EAE701230B752C23E6E702230B75E8
:101380003C23E2E703230B752C23DEE73C23DCE759
:101390000B7D042B01D00020E4E700230B75FAE756
:1013A00070B50546064EC400221A9300334498884F
:1013B00000F0DEFC641BA300F3586C229A6170BD40
:1013C0000C0000102DE9F0410C460B4EC5002B1A05
:1013D0004FEA830806EB0803988800F0E3FCB0FBB3
:1013E000F4F056F8083042081A6156F808301A69C5
:1013F000801A5861BDE8F0810C000010C0EBC003FA
:101400009A00094B13441B6953B1C0EBC000820022
:10141000054B13449868884214BF00200120704790
:10142000014B13449960F0E70C00001010B504461E
:101430000948E3001B1B9A00831819698058FFF7BD
:101440001FFF40B9C4EBC4039A00034B13449B68CD
:1014500002212046984710BD0C000010C0EBC000D0
:101460008300034AD3581868C0F3C000704700BF18
:101470000C000010012915D138B50446C0EBC0039B
:101480009A00094B13441D692B7DDBB2042B08D154
:101490002046FFF7E3FF0028F6D02046FFF7C6FFFF
:1014A000F2E738BD704700BF0C0000107047FFFF27
:1014B000094B98420BD0A3F58053984209D0A3F56D
:1014C0007833984201D08420704785207047A4204B
:1014D0007047A320704700BF00400C4008B5FFF7DD
:1014E000E7FF00F045FC08BD42680023436001238C
:1014F0008360022343608368002BFCD14260704705
:10150000034B984201D0032070470420704700BF6E
:1015100000400E4070B50D4614461E46FFF7F0FF22
:1015200000F040FC55B104FB06F404EB40006400FD
:10153000B0FBF4F0C0B20138C0B270BD04EB84035C
:1015400004EB4304F1E7FFFF38B505460C46FFF70F
:10155000D7FF01231A46194600F0ECFB0021E96091
:10156000084A2260217161710B232846FFF7D2FFE0
:10157000000240F400132079400400F46020184376
:10158000286038BD801A060070B505460E4604680E
:1015900024F46F2424F470640A600B79C3F10B0304
:1015A000DBB24979FFF7B6FF44EA002033795B04E8
:1015B00003F4602303432B6070BD08B50A710A6809
:1015C000FFF7E2FF08BD10B4436803F0F803302BC7
:1015D0004CD008D9482B6CD034D9582B58D0F82B84
:1015E0003ED100202BE0102B16D00ED9202B3DD061
:1015F000282B01D0182B35D18B88002B3ED1CB88DE
:10160000002B5ED14B802C230FE01BB903234B80B2
:101610002C230AE0082B25D10A788B88B3FA83F3B0
:101620005B0943EA420383603C2383F03C0202608F
:1016300003F02C0383614888FF3818BF01205DF850
:10164000044B7047382B38D0402B0BD1CA88012A65
:1016500027D93823002AE8D14A8023F01003E4E791
:10166000502B15D001234B802C23DEE74B7813F051
:10167000010FC1D102234B802C23D6E78B685A1C63
:101680008A601B7883608B88013B8B803C23CCE78E
:101690008268CB685C1CCC601A70CB88013BCB8025
:1016A000D4E74B7813F0020F01D13C23D2E7382363
:1016B000D0E704234B802C23B7E705234B803C2342
:1016C000B3E71C23B1E7FF234B802C238361602306
:1016D0000360704738B504460D46FFF7F4FF00205D
:1016E00003E029462046FFF76EFF20B9236813F078
:1016F000080FFBD0F5E738BD70B58AB005460E4639
:1017000014464CF250330993062818D000230122C6
:101710002946042000F0C8FA4A4A536C43F00103FA
:1017200053648DF8085001A9304600F035FA464B55
:101730009E4216D9019B13F0400F03D0FEE700F044
:101740008DF9E3E713F0800F05D023F080030193B8
:101750000025012607E0049B0133049301250026A0
:1017600001E000252E469DF80820019B43EA026314
:10177000059A43EA0243039A43EA0233049A43EA8E
:10178000022343F400632F4A53642E4B1B6C13F067
:10179000010FFAD0002301220921042000F084FA6D
:1017A00006B34CF250330993099B5A1E0992002B41
:1017B000FAD1019B43F0800301939DF8082043EA8E
:1017C0000263059A43EA0243039A43EA0233049A06
:1017D00043EA022343F400631A4A5364002C2ED1D7
:1017E0000AB070BD002DF9D04CF250330993099B1B
:1017F0005A1E0992002BFAD1049B5A1E04929DF89E
:101800000810019B43EA0163059943EA01430399E8
:1018100043EA013343EA022343F40063094A536471
:10182000DCE70A4800EB8401CB788A78497810F825
:10183000240000F039FA0134112CF2D9D0E7002449
:10184000FAE700BF0000054080778E069439001A41
:1018500008B5692000F0A6FA014B186008BD00BF6A
:1018600000060010F0B40B6813F0800F02D023F0D4
:1018700040030B60074601253AE04B6903FB02F386
:10188000B3FBF5F31CE01C46B0EB040C27D4674512
:1018900006D98D60771CCF600A618C61CB61674689
:1018A0000132B2F5807F1DDC0C6814F0400FE4D0EB
:1018B000731C02FA03FC4B6903FB0CF3B3FBF5F357
:1018C000DFF838C06345EBD9DFF834C0634509D889
:1018D00014F0800FD7D1741C23FA04F4D4E7CCF1B0
:1018E000000CD4E70136032E01DC0122D9E70135D3
:1018F000042D01DC0026F6E7F0BC7047FF5E4C09C2
:1019000000D01213F0B599B005460C465C220021B8
:1019100001A801F0EFFC802300936369059323790C
:101920008DF8043069462846FFF79CFF069BAB42C2
:1019300027D0EB1A2ED41E46109B23F040031093A1
:101940006369159323798DF8443010A92846FFF771
:1019500089FF169BAB421FD0EB1A25D41F462B4B99
:101960009D4223D90E9BED1A33D4AE423BDCBE42DE
:1019700031DC6D460FCD0FC495E80F0084E80F00F1
:1019800006E06D460FCD0FC495E80F0084E80F0008
:1019900019B0F0BD5B42CEE710AD0FCD0FC495E896
:1019A0000F0084E80F00F3E75B42D7E7402308937A
:1019B00063690D9308A92846FFF754FF0E9BAB42BD
:1019C000D0D108AD0FCD0FC495E80F0084E80F000B
:1019D000DEE76D42C9E710AD0FCD0FC495E80F00EB
:1019E00084E80F00D4E7AF4207DB08AD0FCD0FC48A
:1019F00095E80F0084E80F00CAE710AD0FCD0FC4C3
:101A000095E80F0084E80F00C2E700BF80778E06DC
:101A100030B4054600231C2000E001331C2818D1F7
:101A200003EB430251000C4A0A441479844210D05B
:101A300003EB43014A0008498A5AAA42EDD803EB56
:101A400043025100044A0A445288AA42E5D3204680
:101A5000E4E730BC704700BFE839001A82B04FF4A9
:101A60007A7301930D4A936923F0020192698A42C5
:101A700001D00A4A916123F00303094A1168094A17
:101A8000914201D943F00403044A9361019B5A1E19
:101A90000192002BFAD102B0704700BF0000054050
:101AA0009039001AFF2C31011230054B53F82000F9
:101AB00010F0010F02D1C0F304607047112070478D
:101AC0000000054000F11202034B53F82220034BA3
:101AD000185C00EA9200704700000540E039001AE7
:101AE00008B510280AD8DFE800F0440B0D182109CA
:101AF00024272A2D09093034383C400000203AE0E0
:101B00001E4838E01E4BD3F82C3103F00703042B9A
:101B100001D01C482FE000202DE0194BD3F82C31C8
:101B200003F00703042B27D0164824E0164B18684F
:101B300021E0164B18681EE0154B18681BE0144B8B
:101B4000586818E000F068F815E0002100F09AF8F5
:101B500011E0012100F096F80DE0022100F092F86A
:101B600009E0032100F08EF805E0042100F08AF876
:101B700001E04FF4004008BD0648FCE7001BB70039
:101B80000030044040787D016439001A9039001A11
:101B9000E800001080F0FA0238B505460C460879D6
:101BA000FFF79EFF6061194B2B44194A934221D8DD
:101BB00018B3802323600023A360E360B5FBF0F338
:101BC0002361144A954203D903FB00F0A84207D0D1
:101BD00021462846FFF796FEA3688BB1013BA36020
:101BE000236983B1E2680AB1013AE260013B2361F3
:101BF000002038BD4FF0FF30FBE74FF0FF30F8E733
:101C00004FF0FF30F5E74FF0FF30F2E7103A6BFF8F
:101C10001005940BFF5E4C0930B583B0174D6C6C0A
:101C2000C4F30360FFF75CFF154B1B6801932B6C3B
:101C300013F0010F20D0C4F30743C4F30132C4F3FF
:101C40000121C4F38015013301320DF1080C614408
:101C500011F8041C14F0800F08D13DB94900B3FB02
:101C6000F1F3B0FBF2F000FB03F003E0B0FBF2F0A5
:101C700003FB00F003B030BD0020FBE7000005408F
:101C8000DC39001A38B50C460846FFF70DFF05464B
:101C90002046FFF717FF04462846FFF721FF0134CF
:101CA000B0FBF4F038BDFFFF30B400F11604A4001F
:101CB00004F1804404F5A02464681B2813D811297A
:101CC0001AD00E4D25400AB145F400650BB145F020
:101CD000010545EA01651630800000F1804000F5FD
:101CE000A020456008E044F001041630800000F1B7
:101CF000804000F5A020446030BC7047FEF7FFE054
:101D00001B280CD81630800000F1804000F5A02080
:101D1000406810F0010F04D1C0F304607047112037
:101D200070471120704708B5FFF7EAFFFFF7D8FEAC
:101D300008BDFFFF71B901210AB141F00401022B76
:101D40000AD0B0F5A17F0AD3A0F59170064B43F8F5
:101D5000301070470321EFE741F02001F1E7203018
:101D6000024B43F83010704700200540001005403A
:101D7000B0F5A17F09D3094AA0F5917052F830302F
:101D800043F0010342F830307047054A203052F8E2
:101D9000303043F0010342F83030704700200540F6
:101DA0000010054010B5B0F5A17F09D3A0F59173DF
:101DB0000D4A52F8334014F0010F07D1002010BD36
:101DC00000F12003094A52F83340F4E7FFF720FE00
:101DD000FFF7A9FF14F0E00F03D10123B0FBF3F0EC
:101DE000EDE70223FAE700BF0020054000100540A0
:101DF000094B984209D003F58053984207D0A3F5C8
:101E00008023984205D000207047022070470320AD
:101E100070470120704700BF00100C4030B583B000
:101E20000446FFF7E5FF01231A4619460E4D35F823
:101E30001000FFF77FFF0723A3600023E3656360C3
:101E4000E3602362E36463652365084B9C4206D02C
:101E50000323E3601023A362019B03B030BD002382
:101E60002361A3690193F3E75C3A001A002008405C
:101E700038B505460C46FFF7BBFF0C4B33F8100096
:101E8000FFF790FF2301B0FBF3F3D9B2EA6842F009
:101E90008002EA602960C3F307226A60EA6822F0E0
:101EA0008002EA60B0FBF3F0000938BD543A001A32
:101EB0002DE9F04F83B001908846FFF799FF324B30
:101EC00033F81000FFF76EFF06464FF0FF3701248E
:101ED0004FF0000BA246D9462AE042424B1C17E0C5
:101EE0000AB31746AB46A24699460135AC421ED905
:101EF00033093007A4FB000104FB0311621908FB3E
:101F000002F2002301F050F802460B460028E4DB01
:101F10009742EAD3002BE8D0190CE6D1022BDFD888
:101F2000002DDDD0E1E71746AB46A24699460134C5
:101F30001FB10F2C01D80025D8E7B9F1000F1ED032
:101F4000019A1146D36843F08003D3605FFA89F3A6
:101F50001360C9F307235360D36823F08003D36071
:101F60004FEA0A13DBB20BF00F0213438B62330903
:101F70000AFB03F3DA4409FB0AF9B3FBF9F9484613
:101F800003B0BDE8F08F00BF543A001A08B50B4A01
:101F90000B4B9A6003F50C731B6903F47F63202BD2
:101FA00004D0FFF727F8FFF7E5F808BD044AD2F898
:101FB000883043F47003C2F88830F2E70000001A5A
:101FC00000ED00E030BF7047044B1860044A13680E
:101FD00043F0010313600120704700BF440000106C
:101FE000001000E030B40B4D00EB80002C18285698
:101FF000087094F90110117094F902201A7094F984
:102000000320029B1A7094F90420039B1A7030BCC1
:10201000704700BF643A001A10F1020F00F0C78049
:10202000B0F1FF3F00F0C58070B584B00C460023CE
:102030008DF80F308DF80E308DF80D308DF80C3096
:102040008DF80B300DF10B03019303AB00930DF1F1
:102050000D030DF10E020DF10F01FFF7C3FF052C6B
:1020600000F2A980DFE804F00981274563035348A3
:10207000FFF71CFA012004B070BD9DF80F109DF809
:102080000E309DF80D2042F0D00203EB41134C4975
:1020900041F823209DF80C309DF90B20012000FA17
:1020A00002F1464C03F5006354F8232022EA0102B2
:1020B00044F82320DFE79DF80F109DF80E309DF8BF
:1020C0000D2042F0C00203EB41133D4941F82320AB
:1020D0009DF80C309DF90B20012000FA02F1374CDD
:1020E00003F5006354F8232022EA010244F8232078
:1020F000C1E79DF80F109DF80E309DF80D2042F0BD
:10210000D80203EB41132E4941F823209DF80C30EF
:102110009DF90B20012000FA02F1284C03F5006321
:1021200054F8232022EA010244F82320A3E79DF873
:102130000F109DF80E309DF80D2042F0C80203EB01
:1021400041131F4941F823209DF80C309DF90B20C5
:10215000012000FA02F1194C03F5006354F8232022
:1021600022EA010244F8232085E79DF80F109DF82C
:102170000E309DF80D2042F0D00203EB41131049C0
:1021800041F823209DF80C409DF90B20012000FA16
:1021900002F10A4B04F5006553F82560314343F81A
:1021A0002510D2B203EB44130021995463E70020B9
:1021B00070470020704700205DE700BF00400F40DF
:1021C0000060084010F1020F2DD0B0F1FF3F2CD07D
:1021D00010B584B00C4600238DF80F308DF80E300A
:1021E0008DF80D308DF80C308DF80B300DF10B03A0
:1021F000019303AB00930DF10D030DF10E020DF1F0
:102200000F01FFF7EFFE9DF80C309DF80B20211C0D
:1022100018BF01215B0103F1402303F5702399549A
:10222000012004B010BD002070470020704710F15D
:10223000020F2CD0B0F1FF3F2BD000B585B00023AA
:102240008DF80F308DF80E308DF80D308DF80C3084
:102250008DF80B300DF10B03019303AB00930DF1DF
:102260000D030DF10E020DF10F01FFF7BBFE9DF9FD
:102270000C309DF80B205B0103F1402303F5702324
:10228000985C003018BF012005B05DF804FB012008
:10229000704700207047FEE77047FFFF2DE9F041CF
:1022A000002977D0054617460E4604463E494300AE
:1022B00003449A0001EB02088858FFF70FF998F8D9
:1022C000043003F01F015B0901228A404033374983
:1022D00041F8232004EB44039A00334B13441B7949
:1022E0005A095432314951F8221003F01F030122D8
:1022F00002FA03F31942EDD02B4905FA02F32B44FD
:102300009A0001EB02088C582046FFF7EDF82B01EC
:10231000274AD750636943F001036361A66163698B
:1023200043F002036361636843F001036360D8F81C
:10233000082053B2002B30DB03F1604303F5614307
:10234000C02283F8002305EB45039A00164B134483
:102350009A6853B2002B08DB02F01F025B090121CF
:1023600001FA02F2134941F8232005EB4505AA00C2
:102370000D4B13449A6853B2002B09DB02F01F0285
:102380005B09012101FA02F260330A4941F8232076
:10239000BDE8F0810020FFF77EFF02F00F02064B40
:1023A0001344C0221A76CEE74C3B001A0030054099
:1023B0004800001000E100E0FCEC00E0CC2303FB4F
:1023C00000F0704730B401EB80050A4C44F825302A
:1023D00000EB400083000848C35849B2586901EB3C
:1023E00041050124AC4020435861063143F82120C7
:1023F00030BC7047480000104C3B001A38B5002430
:1024000001E00134E4B2032C12D865B2094B1A681A
:1024100004F00F0101238B401A42F2D0064B53F80F
:102420002430002098470123AB40024A1360E8E7BC
:1024300038BD00BF004008404800001038B50024F7
:1024400001E00134E4B2032C13D865B2094B1A68D9
:1024500004F00F0101238B401A42F2D0231D064ADB
:1024600052F82330002098470123AB40014A136003
:10247000E7E738BD005008404800001038B5002498
:1024800001E00134E4B2032C14D865B20A4B1A6897
:1024900004F00F0101238B401A42F2D004F108032B
:1024A000064A52F82330002098470123AB40024AE5
:1024B0001360E6E738BD00BF00300C404800001054
:1024C00038B5002401E00134E4B2032C14D865B21D
:1024D0000A4B1A6804F00F0101238B401A42F2D014
:1024E00004F10C03064A52F82330002098470123D8
:1024F000AB40024A1360E6E738BD00BF00400C4025
:102500004800001038B504460D46084B40F6080256
:10251000C3F8842CFEF744FF29462046FEF752FFFD
:1025200003492046FEF76AFF012038BD00600840DD
:102530007514001A00B585B08DF8001000218DF8D3
:102540000110ADF802100292ADF80430079B03931E
:10255000BDF82030ADF8063069460548FFF7BAF8F7
:1025600018B1012005B05DF804FB0020FAE700BFB8
:1025700000100A4008B10020704700B585B08DF802
:10258000001000218DF80110ADF802100292ADF894
:1025900004300391ADF8061069460548FFF79AF834
:1025A00018B1012005B05DF804FB0020FAE700BF78
:1025B00000100A4008B10020704708B5FFF7A2FFDD
:1025C00008BD08B10020704710B584B09DF82440C4
:1025D0000394BDF820400294079C01949DF8184094
:1025E0000094FFF7A7FF04B010BD08B100207047AA
:1025F00010B582B09DF810400094FFF7BBFF02B009
:1026000010BDFFFF014BD3E900017047F800001037
:1026100018B1044B07221A607047024B00221A605F
:10262000704700BF10E000E038B550EA01042AD03E
:1026300010F1FF3241F1FF33002B08BF322A27D2BD
:10264000144BC3E90001144B1B68A3FB004503FBBB
:1026500001554FF47A7200232046294600F0A4FC6D
:102660000138B0F1807F09D20C4B58600C4AE02150
:1026700082F8231000229A6007221A600120FFF7D7
:10268000C7FF012038BD0020FFF7C2FF0020F9E797
:102690000020F7E7880000100006001010E000E0BE
:1026A00000ED00E008B5074A13685168013341F1B5
:1026B000000113605160044B1B6813B1034A10689A
:1026C000984708BDF800001000010010F00000104D
:1026D00070B5044600EB400293001F4AD658756956
:1026E000EDB215F0010F09D020B91C4B1B680BB1DE
:1026F00000209847032C13D0052C18D015F0200F7C
:102700000DD0736813F0020F09D024B9144B1B6865
:102710000BB100209847032C10D0052C15D070BDAC
:10272000104B1B68002BE7D000209847E4E70E4BC6
:102730001B68002BE2D000209847DFE70B4B1B689B
:10274000002BEAD000209847E7E7094B1B68002BD5
:10275000E5D000209847E2E77C3B001A0801001012
:10276000140100100C0100101001001018010010DD
:102770001C01001000EB40008300034AD358586945
:1027800000F00100704700BF7C3B001A00EB4000E6
:102790008300034AD358586900F02000704700BFF7
:1027A0007C3B001A00EB40008300024AD3581868B3
:1027B000C0B270477C3B001A00EB40008300024A25
:1027C000D3581960704700BF7C3B001A2DE9F843CD
:1027D00080468946194C45002A189300E618E758A8
:1027E0003846FFF71BFB49463846FFF741FB0723F6
:1027F000BB603B680123FB6530797379B27942F0A5
:1028000018020F4903EB401341F82320F079337A83
:10281000727A42F0D00203EB401341F82320B8F162
:10282000010F01D0BDE8F883064AD36C43F03003B2
:10283000D3641A22C1F80823F4E700BF7C3B001AD6
:10284000006008400010084038B505460C46FFF708
:1028500091FF034608B9184638BD2846FFF7A2FF86
:1028600020700123F7E710B582B00C460B78042BDB
:1028700036D8DFE803F003102F353200D1E9042306
:1028800001F1180000F0D4F90023638101232370C3
:10289000207802B010BD0DF10701FFF7D5FF30B170
:1028A00062686389D15C9DF80720914208D004F1E9
:1028B000180000F0CDF90028EAD004232370E7E7E0
:1028C00001339BB263812289013A9342EFD1022303
:1028D0002370ECE700230B70DAE700230B70D7E7D7
:1028E00000230B70D4E710B58CB0044600208DF89F
:1028F00000000191ADF80820DDE90E23CDE90423A5
:10290000022806D0042804D069462046FFF7ABFF12
:10291000F6E7042802D001200CB010BD0020FBE730
:1029200070B582B00C4616461D460B78042B55D860
:10293000DFE803F003124B514E00D1E9042301F10B
:10294000180000F075F900236381264A1360012303
:102950002370207802B070BD0DF10701FFF774FFFE
:1029600078B12A681F4B1B689A4218D99DF8071046
:10297000F15401331B4A136060686289805C8142B4
:1029800015D004F1180000F063F90028E1D0042309
:102990002370144B1A682A6000221A60D9E70322B8
:1029A00022702B600F4B00221A602078D2E7013290
:1029B00092B26281218901398A42E2D102222270D7
:1029C0002B60084B00221A60DBE700230B70C0E786
:1029D00000230B70BDE700230B70BAE700230B70D8
:1029E000B7E700BF0401001030B58DB005461C46A6
:1029F00000208DF800000191ADF80820DDE91223D8
:102A0000CDE90423022808D0042806D0109B2246D2
:102A100069462846FFF784FFF4E7042802D0012026
:102A20000DB030BD0020FBE738B504460D4620460A
:102A3000FFF7ACFE0028FAD029462046FFF7BCFE7F
:102A400038BD38B505460C46217821B12846FFF738
:102A5000EBFF0134F8E738BD08B50320FFF738FE77
:102A600008BD08B50520FFF733FE08BD08B5044BC7
:102A70001B681B68DB68034A1068984708BD00BFE5
:102A8000040600102001001008B5FEF7E1FE1A4B05
:102A90001868FFF799FA01200021FFF7C5FD05210D
:102AA0000020FFF7B9FA00212420FFF7B5FA002132
:102AB0002520FFF7B1FA00212620FFF7ADFA00210B
:102AC0002720FFF7A9FA01212820FFF7A5FA012105
:102AD0002920FFF7A1FA01212A20FFF79DFA012101
:102AE0002B20FFF799FA01212C20FFF795FA0121FD
:102AF0002D20FFF791FA08BD000600102DE9F047E0
:102B000014469A46023BDBB2222B03D806460F46F8
:102B1000154605E0002010702FE01D4606460F46C2
:102B20005FFA8AF84FF0000942464B463046394674
:102B300000F0EAF9A8FB0023B21A23322B46DFF893
:102B400040C06244127803F8012B50EA0102E4D13C
:102B5000002E77F1000203DB002203F8012909E0CF
:102B60002D221A70AB1CF7E71A78217803F80119A7
:102B700004F8012BA342F7D80120BDE8F08700BF7D
:102B8000C43B001A08B550EA010306D1064B3022B7
:102B90001A7000225A70044808BD034A00231370BB
:102BA0000A23FFF7ABFFF6E70806001008B50B464F
:102BB000017011461846FFF709FE08BD08B5FFF77A
:102BC00040FF08BD08B50249FFF73BFF08BD00BF45
:102BD000E035001A10B592B00446104619469DF82B
:102BE000503001AAFFF78AFF08B912B010BD01A941
:102BF0002046FFF726FFF8E72DE9F843804689468F
:102C0000FFF700FD06460F46FFF7FCFC841B61EB57
:102C10000705064BD3E900234046494600F0C4F9B6
:102C20008D4208BF8442EFD3BDE8F88388000010CE
:102C300010B5044610461946044BD3E9002300F0B2
:102C4000B3F9C4E902010023237410BD8800001009
:102C5000F8B50446057C3DB9FFF7D4FCC4E9000192
:102C6000012323742846F8BDFFF7CCFC2368626873
:102C7000C61A61EB0207D4E902239F4208BF9642BD
:102C800003D3002323740125ECE70025EAE7FFFFC7
:102C9000F0B4C40004F018044901C9B202F01F02E4
:102CA0001143A14082081E4F02F5607257F822506E
:102CB000FF2606FA04F425EA0404214347F822100B
:102CC0000122824017494A620C6824EA02040C601F
:102CD000E3B9144B9A602030C0B243B2002B08DB3A
:102CE00000F01F045A090121A14060320E4C44F843
:102CF0002210002B08DB00F01F005B09012202FA02
:102D000000F0094A42F82300F0BC7047012B03D0C1
:102D1000044B9A605A61DEE7024B5A61DBE700BF61
:102D2000006008400070084000E100E010B420306E
:102D3000C0B243B2002B08DB00F01F045A09012186
:102D4000A14060320A4C44F82210002B0DDB00F049
:102D50001F005B09012202FA00F02033044A42F806
:102D60002300BFF34F8FBFF36F8F5DF8044B7047A5
:102D700000E100E0012303FA00F0014B58627047C4
:102D800000700840F8B5124B1A5C124BD969012348
:102D900083400B420CD010498C6802EB4202D100F8
:102DA0000E4A0A4454600B4AD361FFF7E3FFF8BDB3
:102DB00009498E68094D51008F18FC0027462C44A4
:102DC000A6606468361B3D44EE60024A1362ECE77D
:102DD0000C3C001A007008400040084094000010AD
:102DE00008B500211E20FFF7EDF908BD08B5012147
:102DF0001E20FFF7E7F908BD2DE9F04104460F4614
:102E000000293DD1234B1B78FBB9DFF88C8066008D
:102E10003319DD004544002195F91000FFF7FCF857
:102E200095F9131095F914200223D2B2C9B2A87CE7
:102E3000FFF72EFF174B1B7863B904EB4404E20045
:102E4000154B13445F74BDE8F08101211E20FFF78C
:102E5000E3F8DAE74EF66020FFF7B0FA0F4A0146D2
:102E60000020FFF71BFA0A20FFF7A8FA0C4B0246D6
:102E700001210020FFF7A6FA064B00221A70DCE7BA
:102E800000EB4003DA00044B1344987CFFF74EFF3D
:102E9000D3E700BF9000001094000010ED2D001A41
:102EA000E12D001A00EB4000C2000B4B1344DB681D
:102EB0000A4AA2FB0323DB0907EE903AF8EE677A91
:102EC00021B99FED077A87EE870A70479FED057A53
:102ED00087EE870A704700BF94000010A1A0A0A051
:102EE000000068420000144308B50020FFF74AFFC5
:102EF00008BD08B50120FFF745FF08BD08B5022051
:102F0000FFF740FF08BDFFFF7BB972B90029BEBFC4
:102F100000204FF0004106E008BF00281CBF6FF002
:102F200000414FF0FF3000F0BFB9ADF1080C6DE982
:102F300004CE002909DB002B1ADB00F04DF8DDF888
:102F400004E0DDE9022304B07047404261EB410137
:102F5000002B1BDB00F040F8DDF804E0DDE9022384
:102F600004B0404261EB4101524263EB43037047BE
:102F7000524263EB430300F02FF8DDF804E0DDE993
:102F8000022304B0404261EB41017047524263EBBF
:102F9000430300F021F8DDF804E0DDE9022304B08A
:102FA000524263EB4303704753B94AB9002908BF43
:102FB00000281CBF4FF0FF314FF0FF3000F074B914
:102FC000ADF1080C6DE904CE00F006F8DDF804E080
:102FD000DDE9022304B070472DE9F047089E04465E
:102FE0008846002B40F085808A42154648D9B2FABF
:102FF00082F24AB1C2F1200701FA02F320FA07F780
:10300000954047EA030894404FEA154E230CB8FB5D
:10301000FEF71FFA85FC0EFB178843EA084307FBFF
:103020000CF1994209D9EB1807F1FF3080F0E380E9
:10303000994240F2E080023F2B445B1AA4B2B3FBFA
:10304000FEF00EFB103344EA034400FB0CFCA445E5
:1030500009D92C1900F1FF3380F0CB80A44540F250
:10306000C88002382C4440EA0740A4EB0C04002737
:103070001EB1D4400023C6E900433946BDE8F087BD
:10308000002A53D0B2FA82F2002A40F0B680491BDF
:103090004FEA154E1FFA85F80127B1FBFEFC230C01
:1030A0000EFB1C1143EA014308FB0CF1994207D9BE
:1030B000EB180CF1FF3002D2994200F2EC8084460A
:1030C000591AA3B2B1FBFEF00EFB101443EA0444FC
:1030D00008FB00F8A04507D92C1900F1FF3302D2F4
:1030E000A04500F2DC801846A4EB080440EA0C403E
:1030F000BEE78B4208D9002E78D00027C6E9000130
:1031000038463946BDE8F087B3FA83F77FB98B427A
:1031100002D3824200F2BD80841A61EB03030120D6
:103120009846002EA9D0C6E90048A6E7FFDEC7F101
:103130002005BB4022FA05FC4CEA030C01FA07F417
:1031400020FA05F821FA05F34FEA1C4E48EA040478
:10315000B3FBFEF9210C0EFB19331FFA8CF841EA80
:10316000034309FB08FA9A4502FA07F200FA07F14D
:103170000BD91CEB030309F1FF3080F088809A45DE
:1031800040F28580A9F102096344A3EB0A03A4B2CB
:10319000B3FBFEF00EFB103344EA034400FB08F8D7
:1031A000A04508D91CEB040400F1FF336BD2A04505
:1031B00069D90238644440EA0940A4EB0804A0FB42
:1031C00002894C45C6464B4654D351D0002E69D097
:1031D000B1EB0E0264EB030404FA05F522FA07F3DF
:1031E000FC401D43C6E90054002746E737463046F9
:1031F00043E7184637E707461FE7C2F1200320FAE6
:1032000003F7954001FA02F021FA03F34FEA154E55
:103210003843010CB3FBFEF71FFA85F80EFB17339A
:1032200041EA034107FB08F38B4204FA02F407D991
:10323000691807F1FF3C28D28B4226D9023F294466
:10324000CB1A81B2B3FBFEF00EFB103341EA03410F
:1032500000FB08F38B4207D9691800F1FF3C10D23C
:103260008B420ED902382944C91A40EA074714E7AD
:103270004145ABD2B8EB020E69EB0C0201381346A4
:10328000A4E76046F0E7184695E76746D8E7814629
:103290007BE7384645E7ACF1020C2B4410E70238D7
:1032A0002C4421E73746E8E6704700BF70B50D4D66
:1032B0000D4C641BA4100026A64209D10B4D0C4CEA
:1032C000FDF745FE641BA4100026A64205D170BD83
:1032D00055F8043B98470136EEE755F8043B98470C
:1032E0000136F2E7103C001A103C001A103C001A9C
:1032F000143C001A02440346934200D1704703F87D
:10330000011BF9E710B503461A4612F8014B3CB908
:10331000013B11F8012B03F8012F002AF9D110BD50
:103320001346F1E7034613F8012B002AFBD1181AC4
:1033300001387047F0B50C7864B103461A78184626
:103340005E1C0AB9104605E0944208D10D4615F8F6
:10335000012F02B9F0BD13F8017F9742F7D0334631
:10336000ECE7FFFF2D000000540000003A00FFFFD3
:103370003E3E3E3E20436F6E656374616E646F2017
:10338000616C207365727669646F722022000000A0
:10339000222C2070756572746F2022003E3E3E3EE6
:1033A0002041542B43495053544152543D225443DD
:1033B00050222C2200000000222C000041542B43FC
:1033C000495053544152543D22544350222C220020
:1033D000434F4E4E4543540D0A0D0A4F4B0D0A0004
:1033E0003E3E3E3E202020204572726F723A204EB3
:1033F0006F20736520707565646520636F6E65630B
:1034000074617220616C207365727669646F723AC0
:10341000202200FF3E3E3E3E20436F6E6563746196
:103420006E646F2061206C61207265642057692D85
:1034300046693A202200000041542B43574A41502C
:103440003D220000220D0A005749464920434F4EB5
:103450004E45435445440D0A5749464920474F5469
:103460002049500D0A0D0A4F4B0D0A005749464995
:1034700020434F4E4E454354454400003E3E3E3EA1
:10348000202020204572726F723A204E6F207365A3
:1034900020707565646520636F6E6563746172206A
:1034A00061206C61207265643A2022003E3E3E3EFF
:1034B00020554152545F55534220636F6E666967D1
:1034C000757261646120636F6D6F2073616C6964F4
:1034D000612064652064656275672E003E3E3E3E55
:1034E00020554152545F4553502028646F6E6465E7
:1034F00020736520636F6E6563746120656C204581
:1035000053503031292C200D0A3E3E3E3E20636F41
:103510006E666967757261646120636F6D6F207399
:10352000616C69646120646520636F6E736F6C61A8
:103530002E0D0A003E3E3E3E204368657175656172
:103540007220736920736520656E6375656E747291
:103550006120656C206D6F64756C6F2057692D4616
:10356000692E0D0A3E3E3E3E20202020456E7669A3
:10357000616E646F20224154222E2E2E0000000026
:1035800041540D0A000000003E3E3E3E2020202017
:103590004D6F64756C6F2045535030312057692D45
:1035A00046692064657465637461646F2E0D0A005A
:1035B0003E3E3E3E202020204572726F723A204DE2
:1035C0006F64756C6F2045535030312057692D461C
:1035D00069204E6F2064657465637461646F212196
:1035E0000D0A00FF3E3E3E3E20456E76696F206428
:1035F00061746F73205443502F495020616C2073C5
:1036000065727669646F722E2E2E00003E3E3E3E3D
:103610002041542B43495053454E443D0000000087
:1036200041542B43495053454E443D000D0A0D0A69
:103630004F4B0D0A3E00000053454E44204F4B0DAA
:103640000A000000434C4F5345440D0A000000009F
:103650003E3E3E3E204572726F7220616C20656E68
:1036600076696172206C6F73206461746F7320548B
:1036700043502F49502C20656E20656C20656E7676
:10368000696F2064656C20737472696E6700000056
:103690003E3E3E3E202273747244617461222C20AF
:1036A0006375616E646F20656C2045535030312026
:1036B000706F6E6520656C2070726F6D7074203E47
:1036C000200000003E3E3E3E2079206E6F20736554
:1036D00020726563696265206C6120726573707524
:1036E0006573746120792022434C4F534544222155
:1036F000210D0A003E3E3E3E2079206E6F2073650C
:1037000020726563696265202253454E44204F4B09
:103710002221210D0A0000003E3E3E3E20457272ED
:103720006F7220616C20656E76696172206C6F73B8
:10373000206461746F73205443502F49502C2065CE
:103740006E20636F6D616E646F0000003E3E3E3E12
:10375000202241542B43495053454E442221210DF0
:103760000A00FFFF3E3E3E3E203D3D3D3D3D3D3D8E
:103770003D3D3D3D3D3D3D3D3D3D3D3D3D3D3D3D79
:103780003D3D3D3D3D3D3D3D3D3D3D3D3D3D3D3D69
:103790003D3D3D3D3D3D3D3D3D3D3D3D3D3D3D3D59
:1037A0003D3D3D3D000000003E3E3E3E20456E76E4
:1037B000696172206461746F3A202200220D0A3E12
:1037C0003E3E3E20616C207365727669646F7220A4
:1037D0002200FFFF3E3E3E3E20436F6E73756C74C9
:1037E000616E646F206C617320726564657320572D
:1037F000692D466920646973706F6E69626C6573C8
:103800002E0D0A3E3E3E3E20202020456E76696108
:103810006E646F202241542B43574C4150222E2E70
:103820002E00000041542B43574C41500D0A00001C
:10383000290D0A0D0A4F4B0D0A0000003E3E3E3E88
:10384000202020204572726F723A204E6F207365DF
:1038500020656E6375656E7472616E207265646555
:103860007320646973706F6E69626C657321210DDA
:103870000A00FFFF30313432343236393836340002
:10388000466962657274656C2057694669333536DE
:1038900020322E3447487A00474554202F757064F3
:1038A0006174653F6170695F6B65793D0000000080
:1038B0004333384552384F4B4E35444E45434D38CF
:1038C00000000000266669656C6400003D00000091
:1038D00026737461747573006170692E7468696E03
:1038E00067737065616B2E636F6D00FF010F0101DF
:1038F000020044000201440002024400020A4000A7
:10390000020B4000020C4000010050000101500079
:10391000010250000106500006015000060450004C
:10392000060550000607540006085400060950001A
:10393000060A5000060B5000060C50000F04F00061
:103940000103D5000104D500070116000702560047
:1039500002035200020452000905520009065700F2
:1039600006025700000000000004000800090109D9
:10397000050005010502000E010B010C0300030305
:103980000304050F05100305030603070208FFFFE4
:10399000001BB70000010100090901000A0901002C
:1039A0000107010102090100060901000C090101DA
:1039B0000D0901000E0901000F09010010090100A5
:1039C000110901001209010013090100141101007D
:1039D000191101001A1101001B1101000102040854
:1039E000030F0F0FFF00FFFF000005000A0020007B
:1039F000240009004000400005006000A60004000B
:103A0000C000C3000200E000E0000100000100016E
:103A10000300200120010600400140010C0042018A
:103A20004201190062016201130082018201120049
:103A3000A201A2011100C201C2011000E201E201D3
:103A40000F00020202020E00220222020D002302D7
:103A500023021C00C201A2018201620181008200D6
:103A6000A100A2000401000201070500030D0105E9
:103A70000001080402000202040300020304000023
:103A80000200070400030C030204050903010405F6
:103A90000802030405030204040504060C000208DE
:103AA000060B0003070609000305060704050F06B9
:103AB00004000303040400020404050002050406D4
:103AC000000206040804050C040A04050E010300A4
:103AD000000A011400000F011200000D0111000086
:103AE0000C0110000003070700030F000100000194
:103AF0000000000000060A00030606080405100680
:103B0000050003040601000300040904050D010477
:103B100000000B010F000002010000000401010081
:103B20000008010200000901060001090200040565
:103B30000002010405010202040502020A00000E4F
:103B4000020B00010B020C00010CFFFF00400840BB
:103B5000200000000C000000005008402100000080
:103B60000D00000000300C40220000000E0000009C
:103B700000400C40230000000F000000001008402F
:103B8000060402060502180000100840090507098E
:103B9000060718000020084000000000000019007F
:103BA00000100C400701060702061A0000100C4026
:103BB000010F010110011A0000200C400203020253
:103BC00004021B007A797877767574737271706F5E
:103BD0006E6D6C6B6A6968676665646362613938CB
:103BE0003736353433323130313233343536373895
:103BF000396162636465666768696A6B6C6D6E6F74
:103C0000707172737475767778797A00000102FFAB
:043C1000A511001AE0
:083C1400C4F3FF7F0100000072
:103C1C00A0860100000400000305FFFF00100A400D
:103C2C00220000006112001A0000000000000000D9
:103C3C00000000000000000000000E400100000029
:103C4C006112001A000000000000000000000000DB
:103C5C000000000000CB280C9922001A9722001AB1
:103C6C009722001A9722001A9922001A9722001AFA
:103C7C009722001A9722001A9922001A9722001AEA
:103C8C009722001A9722001A9922001A9722001ADA
:103C9C009722001A9722001A010000000000000071
:103CAC0001FFFFFF0000000000000000000000000A
:103CBC00000000001F0100030400000001000000D0
:103CCC000000000000000000000000001E010105C3
:103CDC0010000000020000000000000000000000C6
:0C3CEC00000000001D01020306000000A3
:040000051A000EC50A
:00000001FF
